:100000000C9434000C9446000C9446000C9446006A
:100010000C9446000C9446000C9446000C94460048
:100020000C9446000C9446000C9446000C94460038
:100030000C9446000C9446000C9446000C94460028
:100040000C9446000C9446000C9448000C94460016
:100050000C9446000C9457000C9446000C944600F7
:100060000C9446000C94460011241FBECFEFD8E03C
:10007000DEBFCDBF21E0A0E0B1E001C01D92A23003
:10008000B207E1F70E9486000C94B1000C940000C6
:100090001F920F920FB60F9211248F938091C6007A
:1000A00085B98F910F900FBE0F901F9018951F92DA
:1000B0000F920FB60F9211242F938F939F93EF936C
:1000C000FF938091790090E0959587959595879518
:1000D00090930101809300018093C6002FEF80E789
:1000E00092E0215080409040E1F700C00000EAE734
:1000F000F0E0808180648083FF91EF919F918F91E8
:100100002F910F900FBE0F901F9018951092C50061
:1001100087E68093C40088E98093C10086E08093DD
:10012000C2008FEF84B9ECE7F0E0808180628083C9
:10013000808180648083EAE7F0E08081806880834A
:1001400080818460808380818260808380818160FF
:1001500080838081886080837894808180648083BC
:06016000FFCFF894FFCF71
:00000001FF
